{
  "contractName": "ApprovalContract",
  "abi": [
    {
      "inputs": [],
      "payable": true,
      "stateMutability": "payable",
      "type": "constructor"
    },
    {
      "constant": true,
      "inputs": [],
      "name": "approver",
      "outputs": [
        {
          "internalType": "address",
          "name": "",
          "type": "address"
        }
      ],
      "payable": false,
      "stateMutability": "view",
      "type": "function"
    },
    {
      "constant": true,
      "inputs": [],
      "name": "sender",
      "outputs": [
        {
          "internalType": "address",
          "name": "",
          "type": "address"
        }
      ],
      "payable": false,
      "stateMutability": "view",
      "type": "function"
    },
    {
      "constant": false,
      "inputs": [
        {
          "internalType": "address",
          "name": "_receiver",
          "type": "address"
        }
      ],
      "name": "deposit",
      "outputs": [],
      "payable": true,
      "stateMutability": "payable",
      "type": "function"
    },
    {
      "constant": true,
      "inputs": [],
      "name": "viewApprover",
      "outputs": [
        {
          "internalType": "address",
          "name": "",
          "type": "address"
        }
      ],
      "payable": false,
      "stateMutability": "pure",
      "type": "function"
    },
    {
      "constant": false,
      "inputs": [],
      "name": "approve",
      "outputs": [],
      "payable": false,
      "stateMutability": "nonpayable",
      "type": "function"
    }
  ],
  "bytecode": "0x6080604052336000806101000a81548173ffffffffffffffffffffffffffffffffffffffff021916908373ffffffffffffffffffffffffffffffffffffffff160217905550346002819055506103448061005a6000396000f3fe60806040526004361061004a5760003560e01c806312424e3f1461004f578063141a8dd81461006657806367e404ce146100bd578063d93ce89c14610114578063f340fa011461016b575b600080fd5b34801561005b57600080fd5b506100646101af565b005b34801561007257600080fd5b5061007b610266565b604051808273ffffffffffffffffffffffffffffffffffffffff1673ffffffffffffffffffffffffffffffffffffffff16815260200191505060405180910390f35b3480156100c957600080fd5b506100d261027e565b604051808273ffffffffffffffffffffffffffffffffffffffff1673ffffffffffffffffffffffffffffffffffffffff16815260200191505060405180910390f35b34801561012057600080fd5b506101296102a3565b604051808273ffffffffffffffffffffffffffffffffffffffff1673ffffffffffffffffffffffffffffffffffffffff16815260200191505060405180910390f35b6101ad6004803603602081101561018157600080fd5b81019080803573ffffffffffffffffffffffffffffffffffffffff1690602001909291905050506102bf565b005b735c6b0f7bf3e7ce046039bd8fabdfd3f9f502167873ffffffffffffffffffffffffffffffffffffffff163373ffffffffffffffffffffffffffffffffffffffff16146101fb57600080fd5b600160009054906101000a900473ffffffffffffffffffffffffffffffffffffffff1673ffffffffffffffffffffffffffffffffffffffff166108fc479081150290604051600060405180830381858888f19350505050158015610263573d6000803e3d6000fd5b50565b735c6b0f7bf3e7ce046039bd8fabdfd3f9f502167881565b6000809054906101000a900473ffffffffffffffffffffffffffffffffffffffff1681565b6000735c6b0f7bf3e7ce046039bd8fabdfd3f9f5021678905090565b600034116102cc57600080fd5b336000806101000a81548173ffffffffffffffffffffffffffffffffffffffff021916908373ffffffffffffffffffffffffffffffffffffffff1602179055505056fea265627a7a723158208c2c89fbb6d4a8753f5dceaea09c3c3b2ad175ee7ce00dbfdfb407c0b5a5ac1464736f6c63430005100032",
  "source": "pragma solidity >=0.4.22 <0.8.0;\r\n\r\ncontract ApprovalContract{\r\n\t\r\n\taddress public sender;\r\n\taddress payable receiver;\r\n\taddress public constant approver = 0x5c6B0f7Bf3E7ce046039Bd8FABdfD3f9F5021678;\r\n    uint money;\r\n\r\n\tconstructor() public payable {\r\n        sender = msg.sender;\r\n        money = msg.value;\r\n  }\r\n\r\n\r\n\tfunction deposit(address _receiver) external payable {\r\n\t\trequire(msg.value > 0)\t;\r\n\t\tsender = msg.sender;\r\n\t\t\r\n\t}\r\n\r\n\tfunction viewApprover() external pure returns(address) {\r\n\t\treturn(approver);\r\n\t}\r\n\r\n\tfunction approve() external {\r\n    require(msg.sender == approver);\r\n    receiver.transfer(address(this).balance);\r\n  }\r\n\r\n}",
  "sourcePath": "C:/Users/win/Desktop/moneydance/Avalanche-Dapp/Truffle/contracts/ApprovalContract.sol",
  "compiler": {
    "name": "solc",
    "version": "0.5.16+commit.9c3226ce.Emscripten.clang"
  },
  "schemaVersion": "3.3.1",
  "updatedAt": "2020-10-28T10:08:32.663Z",
  "networkType": "ethereum",
  "devdoc": {
    "methods": {}
  },
  "userdoc": {
    "methods": {}
  }
}